:1000000010C01FC01EC01DC01CC01BC01AC019C01C
:1000100018C017C016C015C014C013C012C011C03C
:100020007AC011241FBECFE5D1E0DEBFCDBF20E0F6
:10003000A0E6B0E001C01D92A436B207E1F7D4D02B
:1000400015C1DECF90E09C0135952795880F991F4B
:1000500025758A7A822B282F30E0C90195958795DE
:1000600095958795220F331F220F331F83732C7CA6
:10007000282B822F90E082959295907F9827807F01
:10008000982722952F70822B089590E08295929563
:10009000907F9827807F9827962F9F70982B70E0ED
:1000A0007595679575956795759567957595679538
:1000B0008068682BFA0190836183089590916300B2
:1000C00081E0911180E00895CF93909163009111A8
:1000D000FCCFC1E0C0936300B5DF8093620092E083
:1000E00090BF80B7867F80BF93BF83B78A7F83BF6F
:1000F000C3BD88E686BF12BE8091620090E09595F0
:1001000087958FB984E58DB98AB380628ABB88E40C
:100110008EB9CF9108951F920F920FB60F921124AE
:100120008F939F9380916300813081F482E080936C
:1001300063008091620090E09695982F88279795AC
:1001400087958F678FB98EE48EB90CC08BB38062B0
:100150008BBB8AB380628ABB1DB88EB180648EB9B6
:10016000109263009F918F910F900FBE0F901F9080
:1001700018958AB3807F8ABB87E886B987B18F7369
:1001800087B908958F7087B983B1806183B986B1CB
:10019000806486B9349BFECF85B190E00895FF92CC
:1001A0000F931F93CF93DF93F82EC0E0D0E000E0D1
:1001B00010E0C031D10534F48F2DE4DF080F191F92
:1001C0002196F7CFC80199230CF40F969595879542
:1001D000959587959595879595958795DF91CF917D
:1001E0001F910F91FF9008958AB380628ABB8BB3F1
:1001F00080628BBB7894BDDF81E0D1DF40E650E0C8
:10020000682F81E042DF5ADF8823E9F380916000A4
:100210005BDF54DF8823E9F38091610055DF82E0E2
:10022000BEDF40E650E0682F82E02FDF47DF882303
:10023000E9F38091600048DF41DF8823E9F3809192
:10024000610042DF83E0ABDF40E650E0682F83E0EF
:100250001CDF34DF8823E9F38091600035DF2EDF77
:100260008823E9F3809161002FDFC6CFF894FFCF98
:00000001FF
